:020000040800F2
:100000000050002065780008857600089176000889
:10001000977600089D760008A3760008000000008F
:10002000000000000000000000000000A9760008A9
:10003000B576000800000000C1760008CD76000803
:10004000AD780008AD780008AD780008AD780008FC
:10005000AD780008AD780008AD780008AD780008EC
:10006000AD780008AD780008AD7800080177000889
:100070001577000829770008AD780008AD780008EA
:10008000AD780008AD780008AD780008AD780008BC
:10009000AD780008AD780008AD780008AD780008AC
:1000A000AD780008AD780008AD780008AD7800089C
:1000B0003D770008AD780008AD780008AD780008FD
:1000C000AD780008AD780008AD780008AD7800087C
:1000D000AD780008AD780008AD780008AD7800086C
:1000E000AD780008AD780008AD7800080000000089
:1000F0000000000000000000000000000000000000
:0C01000000000000000000005FF808F1A3
:10010C0010B5054C237833B9044B13B10448AFF345
:10011C0000800123237010BD50000020000000005F
:10012C000879000808B5034B1BB103490348AFF32A
:10013C00008008BD00000000540000200879000871
:10014C0080B500AF084A084B1B6843F010031360DE
:10015C00032000F0FFFC002000F008F807F00AF97B
:10016C000023184680BD00BF0020024080B582B03D
:10017C0000AF7860124B1A68124B1B7819464FF47B
:10018C007A73B3FBF1F3B2FBF3F3184600F017FDEF
:10019C000346002B01D001230EE07B680F2B0AD8FD
:1001AC00002279684FF0FF3000F0DFFC064A7B68D4
:1001BC001360002300E0012318460837BD4680BDBC
:1001CC0038000020040000200000002080B400AFA4
:1001DC00054B1B781A46054B1B681344034A1360E6
:1001EC0000BFBD4680BC704704000020A802002060
:1001FC0080B400AF024B1B681846BD4680BC7047EC
:10020C00A802002080B586B000AF78600023FB7593
:10021C0000233B610023BB600023FB607B68002B49
:10022C0001D10123BEE07B689B68002B7B689B6A35
:10023C00002B09D17B680022DA627B68002283F8EC
:10024C002420786807F0C8F8786800F019FB03469A
:10025C00FB757B689B6A03F01003002B40F09980C0
:10026C00FB7D002B40F095807B689B6A23F48853C0
:10027C0023F0020343F002027B689A627B685A689F
:10028C007B68DB691A437B681B7B5B001343BA6892
:10029C001343BB607B689B68B3F5807F03D07B689E
:1002AC009B68012B02D14FF4807300E000233A6964
:1002BC0013433B617B681B7D012B19D17B681B7B36
:1002CC00002B09D17B689B69013B5A033B691343A3
:1002DC0043F400633B610BE07B689B6A43F02002B4
:1002EC007B689A627B68DB6A43F001027B68DA62A6
:1002FC007B681B687A681268526822F469413A6913
:10030C000A435A607B681A687B681B689968274B9C
:10031C000B40B9680B4393607B689B68B3F5807F97
:10032C0003D07B689B68012B04D17B681B69013B64
:10033C001B05FB607B681B687A681268D26A22F422
:10034C007001FA680A43DA627B681B689A68184B7A
:10035C001340BA6893420BD17B680022DA627B6847
:10036C009B6A23F0030343F001027B689A6218E056
:10037C007B689B6A23F0120343F010027B689A623D
:10038C007B68DB6A43F001027B68DA620123FB7550
:10039C0007E07B689B6A43F010027B689A6201233A
:1003AC00FB75FB7D18461837BD4680BDFDF7E1FF98
:1003BC00FE0E1FFF80B584B000AF78600023FB7386
:1003CC007B6893F82430012B01D102231AE07B685F
:1003DC00012283F82420786800F052FA0346FB735C
:1003EC00FB7B002B09D17B689B6A23F4885323F099
:1003FC00010343F001027B689A627B68002283F858
:10040C002420FB7B18461037BD4680BD80B586B0D6
:10041C0000AFF860B9607A600023FB75FB681B685D
:10042C00644A934204D0FB681B68634A934206D12A
:10043C00604B5B6803F47023002B40F0B380FB68C7
:10044C0093F82430012B01D10223AEE0FB6801228A
:10045C0083F82420F86800F0C1F90346FB75FB7D96
:10046C00002B40F09A80FB689B6A23F4706323F0A6
:10047C00010343F48072FB689A62FB681B684E4A66
:10048C00934205D14B4B5B6803F47023002B15D1C1
:10049C00FB689B6A23F48012FB689A62FB681B68FA
:1004AC005B6803F48063002B26D0FB689B6A23F403
:1004BC00405343F48052FB689A621DE0FB689B6AD0
:1004CC0043F48012FB689A62FB681B68394A9342BA
:1004DC0004D0FB681B68384A93420DD1354B5B68DE
:1004EC0003F48063002B07D0FB689B6A23F4405312
:1004FC0043F48052FB689A62FB689B6A03F4805356
:10050C00002B06D0FB68DB6A23F00602FB68DA627C
:10051C0002E0FB680022DA62FB68002283F82420E8
:10052C00FB681B6A254A9A62FB681B6A244ADA62DA
:10053C00FB681B6A234A1A63FB681B686FF0020294
:10054C001A60FB681B68FA681268926842F4807241
:10055C009A60FB68186AFB681B684C331946BA68CA
:10056C007B6800F093FBFB681B689B6803F46023BB
:10057C00B3F5602F08D1FB681B68FA6812689268A3
:10058C0042F4A0029A600FE0FB681B68FA681268DC
:10059C00926842F480129A6006E0FB68002283F8AD
:1005AC00242001E00123FB75FB7D18461837BD465E
:1005BC0080BD00BF00240140002801400109000853
:1005CC007D0900089909000880B483B000AF7860F9
:1005DC0000BF0C37BD4680BC704780B483B000AF01
:1005EC00786000BF0C37BD4680BC704790B484B0B7
:1005FC0000AF786039600023FB730023BB607B681D
:10060C0093F82430012B01D10223DCE07B6801221A
:10061C0083F824203B685B68062B1CD87B68196820
:10062C007B681B68586B3B685A6813469B001344E5
:10063C00053B1F2202FA03F3DB4318403B681C689E
:10064C003B685A6813469B001344053B04FA03F3BA
:10065C0003434B633CE03B685B680C2B1CD87B680A
:10066C0019687B681B68186B3B685A6813469B00BB
:10067C001344233B1F2202FA03F3DB4318403B686D
:10068C001C683B685A6813469B001344233B04FACE
:10069C0003F303430B631BE07B6819687B681B68DF
:1006AC00D86A3B685A6813469B001344413B1F228F
:1006BC0002FA03F3DB4318403B681C683B685A683A
:1006CC0013469B001344413B04FA03F30343CB62F0
:1006DC003B681B68092B1CD97B6819687B681B68F5
:1006EC00D8683B681A6813465B0013441E3B07220C
:1006FC0002FA03F3DB4318403B689C683B681A68BA
:10070C0013465B0013441E3B04FA03F30343CB6014
:10071C0019E07B6819687B681B6818693B681A6864
:10072C0013465B001344072202FA03F3DB43184021
:10073C003B689C683B681A6813465B00134404FAD8
:10074C0003F303430B613B681B68102B03D03B681E
:10075C001B68112B32D17B681B681D4A934225D133
:10076C007B681B689B6803F40003002B26D17B6815
:10077C001B687A681268926842F400029A603B68BF
:10078C001B68102B1AD1134B1B68134AA2FB0323B3
:10079C009A0C13469B0013445B00BB6002E0BB68E1
:1007AC00013BBB60BB68002BF9D107E07B689B6AFF
:1007BC0043F020027B689A620123FB737B68002262
:1007CC0083F82420FB7B18461037BD4690BC70473D
:1007DC00002401403800002083DE1B4380B584B028
:1007EC0000AF78600023FB600023BB607B681B6854
:1007FC009B6803F00103012B39D07B681B687A6876
:10080C001268926842F001029A601B4B1B681B4AEB
:10081C00A2FB03239B0CBB6002E0BB68013BBB60EB
:10082C00BB68002BF9D1FFF7E3FCF86018E0FFF789
:10083C00DFFC0246FB68D31A022B11D97B689B6A3A
:10084C0043F010027B689A627B68DB6A43F001021A
:10085C007B68DA627B68002283F82420012307E09E
:10086C007B681B689B6803F00103012BDFD100231D
:10087C0018461037BD4680BD3800002083DE1B4370
:10088C0080B584B000AF78600023FB607B681B6888
:10089C009B6803F00103012B27D17B681B687A68E6
:1008AC001268926822F001029A60FFF7A1FCF860CE
:1008BC0014E0FFF79DFC0246FB68D31A022B0DD9FE
:1008CC007B689B6A43F010027B689A627B68DB6AE8
:1008DC0043F001027B68DA62012307E07B681B6846
:1008EC009B6803F00103012BE3D00023184610375B
:1008FC00BD4680BD80B584B000AF78607B685B6A14
:10090C00FB60FB689B6A03F05003002B27D1FB684C
:10091C009B6A43F40072FB689A62FB681B689B68D5
:10092C0003F46023B3F5602F15D1FB681B7B002B00
:10093C0011D1FB689B6A23F48072FB689A62FB6896
:10094C009B6A03F48053002B05D1FB689B6A43F030
:10095C000102FB689A62F86806F056FA04E0FB683C
:10096C001B6A1B6B7868984700BF1037BD4680BD6B
:10097C0080B584B000AF78607B685B6AFB60F86818
:10098C00FFF722FE00BF1037BD4680BD80B584B096
:10099C0000AF78607B685B6AFB60FB689B6A43F026
:1009AC004002FB689A62FB68DB6A43F00402FB6856
:1009BC00DA62F868FFF711FE00BF1037BD4680BD44
:1009CC0080B485B000AF78607B6803F00703FB60F0
:1009DC000C4BDB68BB60BA684FF6FF031340BB607F
:1009EC00FB681A02BB68134343F0BF6343F4003344
:1009FC00BB60044ABB68D36000BF1437BD4680BCE3
:100A0C00704700BF00ED00E080B400AF044BDB6822
:100A1C001B0A03F007031846BD4680BC704700BF95
:100A2C0000ED00E080B483B000AF0346FB7197F992
:100A3C000730002B0BDB084997F907305B09FA7973
:100A4C0002F01F02012000FA02F241F8232000BF3D
:100A5C000C37BD4680BC704700E100E080B483B029
:100A6C0000AF03463960FB7197F90730002B0ADBA6
:100A7C000D4997F907303A68D2B21201D2B20B4441
:100A8C0083F800230AE00949FB7903F00F03043BC8
:100A9C003A68D2B21201D2B20B441A7600BF0C37AC
:100AAC00BD4680BC704700BF00E100E000ED00E0F7
:100ABC0080B489B000AFF860B9607A60FB6803F06D
:100ACC000703FB61FB69C3F10703042B28BF042355
:100ADC00BB61FB690433062B02D9FB69033B00E0C5
:100AEC0000237B610122BB6902FA03F35A1EBB6827
:100AFC001A407B699A4001217B6901FA03F3591E64
:100B0C007B680B40134318462437BD4680BC7047A6
:100B1C0080B582B000AF78607B68013BB3F1807F19
:100B2C0001D301230FE00A4A7B68013B53600F217C
:100B3C004FF0FF30FFF792FF054B00229A60044BF9
:100B4C0007221A60002318460837BD4680BD00BF37
:100B5C0010E000E080B582B000AF78607868FFF7F5
:100B6C002FFF00BF0837BD4680BD80B586B000AFF3
:100B7C000346B9607A60FB7300237B61FFF744FF87
:100B8C0078617A68B9687869FFF792FF024697F93D
:100B9C000F3011461846FFF761FF00BF1837BD46EE
:100BAC0080BD80B582B000AF0346FB7197F907306A
:100BBC001846FFF737FF00BF0837BD4680BD80B52C
:100BCC0082B000AF78607868FFF7A2FF0346184642
:100BDC000837BD4680BD000080B485B000AF78609A
:100BEC000023FB607B68002B01D1012343E07B6871
:100BFC001B681A46224B1344224AA2FB03231B09EF
:100C0C009A007B681A647B681F4ADA637B6802224D
:100C1C0083F821207B681B681B68FB60FB6823F44E
:100C2C007F5323F03003FB607B685A687B689B68BA
:100C3C001A437B68DB681A437B681B691A437B6821
:100C4C005B691A437B689B691A437B68DB691343B6
:100C5C00FA681343FB607B681B68FA681A607B6850
:100C6C0000229A637B68012283F821207B68002292
:100C7C0083F82020002318461437BD4680BC7047EB
:100C8C00F8FFFDBFCDCCCCCC0000024080B586B0C7
:100C9C0000AFF860B9607A603B600023FB75FB68BD
:100CAC0093F82030012B01D102234AE0FB6801228A
:100CBC0083F82020FB6893F82130012B3AD1FB6894
:100CCC00022283F82120FB6800229A63FB681B68D0
:100CDC00FA681268126822F001021A603B687A689E
:100CEC00B968F86800F044F9FB68DB6A002B08D09F
:100CFC00FB681B68FA681268126842F00E021A60F0
:100D0C000FE0FB681B68FA681268126822F0040294
:100D1C001A60FB681B68FA681268126842F00A02D3
:100D2C001A60FB681B68FA681268126842F00102CC
:100D3C001A6005E0FB68002283F820200223FB7573
:100D4C00FB7D18461837BD4680BD000080B584B0C9
:100D5C0000AF78607B68DB6B1B68FB607B681B6893
:100D6C001B68BB607B681B6C04229A40FB681340B9
:100D7C00002B55D0BB6803F00403002B50D07B68CC
:100D8C001B681B6803F02003002B07D17B681B68D2
:100D9C007A681268126822F004021A606D4A7B6845
:100DAC001B6819466C4B99422ED07B681B68194600
:100DBC006A4B994226D07B681B681946684B99424E
:100DCC001DD07B681B681946664B994214D07B6812
:100DDC001B681946644B99420BD07B681B681946FB
:100DEC00624B994202D14FF480030EE04FF08063C6
:100DFC000BE04FF4802308E04FF4804305E04FF400
:100E0C00806302E0402300E0042353607B68DB6ACC
:100E1C00002B00F09A807B68DB6A7868984794E036
:100E2C007B681B6C02229A40FB681340002B5CD041
:100E3C00BB6803F00203002B57D07B681B681B6850
:100E4C0003F02003002B0BD17B681B687A681268B7
:100E5C00126822F00A021A607B68012283F82120B2
:100E6C003C4A7B681B6819463B4B99422ED07B68E9
:100E7C001B681946394B994226D07B681B6819466A
:100E8C00374B99421DD07B681B681946354B9942EC
:100E9C0014D07B681B681946334B99420BD07B6886
:100EAC001B681946314B994202D14FF400130EE0E6
:100EBC004FF000730BE04FF4003308E04FF4005395
:100ECC0005E04FF4007302E0202300E0022353609E
:100EDC007B68002283F820207B689B6A002B34D02F
:100EEC007B689B6A786898472FE07B681B6C0822AC
:100EFC009A40FB681340002B28D0BB6803F0080312
:100F0C00002B23D07B681B687A681268126822F069
:100F1C000E021A607B68DB6B7A68126C012101FA95
:100F2C0002F25A607B6801229A637B68012283F883
:100F3C0021207B68002283F820207B681B6B002B10
:100F4C0004D07B681B6B7868984700BF00BF1037D4
:100F5C00BD4680BD00000240080002401C0002405B
:100F6C003000024044000240580002406C00024035
:100F7C0080B485B000AFF860B9607A603B60FB6804
:100F8C00DB6BFA68126C012101FA02F25A60FB6801
:100F9C001B683A685A60FB685B68102B08D1FB68C9
:100FAC001B687A689A60FB681B68BA68DA6007E0AD
:100FBC00FB681B68BA689A60FB681B687A68DA6021
:100FCC0000BF1437BD4680BC7047000080B48BB0A6
:100FDC0000AF7860396000237B6200233B6227E11D
:100FEC0001227B6A02FA03F3FB613B681A68FB6916
:100FFC001340BB61BA69FB699A4240F016813B68A9
:10100C005B68122B34D0122B0DD8022B2BD0022B59
:10101C0004D8002B31D0012B1CD048E0032B43D03B
:10102C00112B1BD043E0894A934226D0874A934226
:10103C0006D8874A934220D0864A93421DD036E088
:10104C00854A934219D0854A934216D0844A9342DA
:10105C0013D02CE03B68DB683B6228E03B68DB6824
:10106C0004333B6223E03B68DB6808333B621EE0E1
:10107C003B68DB680C333B6219E03B689B68002BD8
:10108C0002D104233B6212E03B689B68012B05D123
:10109C0008233B627B68FA691A6108E008233B620B
:1010AC007B68FA695A6102E000233B6200BFBB69AE
:1010BC00FF2B01D87B6801E07B6804337B61BB6943
:1010CC00FF2B02D87B6A9B0002E07B6A083B9B00EB
:1010DC003B617B691A680F213B6901FA03F3DB431F
:1010EC001A40396A3B6901FA03F31A437B691A60A7
:1010FC003B685B6803F08053002B00F09680594AE4
:10110C00584B9B6943F001039361564B9B6903F069
:10111C000103BB60BB68544A7B6A9B08023352F8DC
:10112C002330FB607B6A03F003039B000F2202FA5F
:10113C0003F3DB43FA681340FB607B684B4A934232
:10114C0013D07B684A4A93420DD07B68494A93423C
:10115C0007D07B68484A934201D1032306E004235D
:10116C0004E0022302E0012300E000237A6A02F08B
:10117C00030292009340FA681343FB603A497B6A7E
:10118C009B080233FA6841F823203B685B6803F440
:10119C008033002B06D03949384B1A68BB6913438E
:1011AC000B6006E03549354B1A68BB69DB431340CD
:1011BC000B603B685B6803F40033002B06D02F49AF
:1011CC002E4B5A68BB6913434B6006E02B492B4BE3
:1011DC005A68BB69DB4313404B603B685B6803F4A4
:1011EC008013002B06D02549244B9A68BB69134306
:1011FC008B6006E02149214B9A68BB69DB431340A5
:10120C008B603B685B6803F40013002B06D01B4912
:10121C001A4BDA68BB691343CB6006E01749174BCE
:10122C00DA68BB69DB431340CB607B6A01337B62BA
:10123C003B681A687B6A22FA03F3002B7FF4D0AE6A
:10124C0000BF2C37BD4680BC704700BF000021108A
:10125C0000001110000012100000311000003210BC
:10126C000000221000100240000001400008014064
:10127C00000C01400010014000140140000401402A
:10128C0080B483B000AF78600B467B8013467B70D4
:10129C007B78002B03D07A887B681A6103E07B880B
:1012AC001A047B681A6100BF0C37BD4680BC7047BE
:1012BC0080B586B000AF78607B68002B01D101232C
:1012CC006CE27B681B6803F00103002B00F0878045
:1012DC00924B5B6803F00C03042B0CD08F4B5B68B8
:1012EC0003F00C03082B12D18C4B5B6803F4803396
:1012FC00B3F5803F0BD1894B1B6803F40033002BF3
:10130C006CD07B685B68002B68D1012346E27B685C
:10131C005B68B3F5803F06D1804A804B1B6843F471
:10132C00803313602EE07B685B68002B0CD17B4A0A
:10133C007A4B1B6823F480331360784A774B1B6815
:10134C0023F4802313601DE07B685B68B3F5A02F4A
:10135C000CD1724A714B1B6843F4802313606F4AA3
:10136C006E4B1B6843F4803313600BE06B4A6B4B82
:10137C001B6823F480331360684A684B1B6823F4A2
:10138C00802313607B685B68002B13D0FEF730FF63
:10139C00386108E0FEF72CFF02463B69D31A642B38
:1013AC0001D90323FAE15D4B1B6803F40033002BD6
:1013BC00F0D014E0FEF71CFF386108E0FEF718FFD0
:1013CC0002463B69D31A642B01D90323E6E1534B44
:1013DC001B6803F40033002BF0D100E000BF7B68E6
:1013EC001B6803F00203002B63D04C4B5B6803F0CB
:1013FC000C03002B0BD0494B5B6803F00C03082B40
:10140C001CD1464B5B6803F48033002B16D1434B45
:10141C001B6803F00203002B05D07B681B69012BB2
:10142C0001D00123BAE13D493C4B1B6823F0F80283
:10143C007B685B69DB0013430B603AE07B681B69DC
:10144C00002B20D0364B01221A60FEF7D1FE3861FA
:10145C0008E0FEF7CDFE02463B69D31A022B01D9F8
:10146C0003239BE12D4B1B6803F00203002BF0D0F0
:10147C002A492A4B1B6823F0F8027B685B69DB0066
:10148C0013430B6015E0264B00221A60FEF7B0FEEA
:10149C00386108E0FEF7ACFE02463B69D31A022B1A
:1014AC0001D903237AE11D4B1B6803F00203002BC7
:1014BC00F0D17B681B6803F00803002B3AD07B68E3
:1014CC009B69002B19D0174B01221A60FEF790FE76
:1014DC00386108E0FEF78CFE02463B69D31A022BFA
:1014EC0001D903235AE10D4B5B6A03F00203002B75
:1014FC00F0D0012000F0A8FA1CE00A4B00221A6080
:10150C00FEF776FE38610FE0FEF772FE02463B698D
:10151C00D31A022B08D9032340E100BF001002406C
:10152C0000004242800442429E4B5B6A03F002037D
:10153C00002BE9D17B681B6803F00403002B00F03F
:10154C00A6800023FB75974BDB6903F08053002BBF
:10155C000DD1944A934BDB6943F08053D361914B8B
:10156C00DB6903F08053BB60BB680123FB758E4BBA
:10157C001B6803F48073002B18D18B4A8A4B1B68B1
:10158C0043F480731360FEF733FE386108E0FEF716
:10159C002FFE02463B69D31A642B01D90323FDE0CD
:1015AC00814B1B6803F48073002BF0D07B68DB68E5
:1015BC00012B06D17B4A7B4B1B6A43F00103136260
:1015CC002DE07B68DB68002B0CD1764A754B1B6ACF
:1015DC0023F001031362734A724B1B6A23F004035A
:1015EC0013621CE07B68DB68052B0CD16D4A6D4BDC
:1015FC001B6A43F0040313626A4A6A4B1B6A43F08A
:10160C00010313620BE0674A664B1B6A23F001036C
:10161C001362644A634B1B6A23F0040313627B68F6
:10162C00DB68002B15D0FEF7E3FD38610AE0FEF70E
:10163C00DFFD02463B69D31A41F28832934201D94D
:10164C000323ABE0574B1B6A03F00203002BEED0D5
:10165C0014E0FEF7CDFD38610AE0FEF7C9FD024645
:10166C003B69D31A41F28832934201D9032395E0A6
:10167C004C4B1B6A03F00203002BEED1FB7D012BBC
:10168C0005D1484A474BDB6923F08053D3617B6813
:10169C00DB69002B00F08180424B5B6803F00C038C
:1016AC00082B61D07B68DB69022B46D13F4B0022B3
:1016BC001A60FEF79DFD386108E0FEF799FD0246C1
:1016CC003B69D31A022B01D9032367E0354B1B6806
:1016DC0003F00073002BF0D17B681B6AB3F5803FDD
:1016EC0008D130492F4B5B6823F400327B689B6830
:1016FC0013434B602B482B4B5B6823F474127B68B1
:10170C00196A7B685B6A0B4313434360274B0122C6
:10171C001A60FEF76DFD386108E0FEF769FD0246C0
:10172C003B69D31A022B01D9032337E01D4B1B68ED
:10173C0003F00073002BF0D02FE01C4B00221A603A
:10174C00FEF756FD386108E0FEF752FD02463B6994
:10175C00D31A022B01D9032320E0124B1B6803F090
:10176C000073002BF0D118E07B68DB69012B01D1F1
:10177C00012313E00B4B5B68FB60FB6803F48032C6
:10178C007B681B6A9A4206D1FB6803F470127B6873
:10179C005B6A9A4201D0012300E0002318461837F7
:1017AC00BD4680BD00100240007000406000424207
:1017BC0080B584B000AF786039607B68002B01D1B4
:1017CC000123D0E06A4B1B6803F007023B689A4286
:1017DC0010D26749664B1B6823F007023B68134322
:1017EC000B60634B1B6803F007023B689A4201D005
:1017FC000123B8E07B681B6803F00203002B20D0A8
:10180C007B681B6803F00403002B05D0594A594B25
:10181C005B6843F4E06353607B681B6803F0080368
:10182C00002B05D0534A534B5B6843F46053536011
:10183C005049504B5B6823F0F0027B689B68134364
:10184C004B607B681B6803F00103002B40D07B6866
:10185C005B68012B07D1474B1B6803F40033002B4B
:10186C0015D101237FE07B685B68022B07D1414BCC
:10187C001B6803F00073002B09D1012373E03D4B6F
:10188C001B6803F00203002B01D101236BE03949E3
:10189C00384B5B6823F003027B685B6813434B6037
:1018AC00FEF7A6FCF8600AE0FEF7A2FC0246FB6815
:1018BC00D31A41F28832934201D9032353E02D4BC2
:1018CC005B6803F00C027B685B689B009A42EBD16F
:1018DC00274B1B6803F007023B689A4210D9244936
:1018EC00234B1B6823F007023B6813430B60204B10
:1018FC001B6803F007023B689A4201D0012332E0D7
:10190C007B681B6803F00403002B08D01949194BA2
:10191C005B6823F4E0627B68DB6813434B607B6895
:10192C001B6803F00803002B09D01249114B5B68AC
:10193C0023F460527B681B69DB0013434B6000F09F
:10194C0021F801460B4B5B681B0903F00F030A4A95
:10195C00D35C21FA03F3094A1360094B1B68184640
:10196C00FEF704FC002318461037BD4680BD00BFAF
:10197C000020024000100240D87E000838000020F1
:10198C000000002090B48AB000AF2A4B3C1D0FCB56
:10199C0084E80F00284B1B883B800023FB6100234D
:1019AC00BB6100237B6200237B6100233B62234BE2
:1019BC005B68FB61FB6903F00C03042B02D0082B62
:1019CC0003D02DE01E4B3B622DE0FB699B0C03F01A
:1019DC000F0307F12802134413F8243C7B61FB69C5
:1019EC0003F48033002B13D0144B5B685B0C03F0B7
:1019FC00010307F12802134413F8283CBB617B69EF
:101A0C000F4A02FB03F2BB69B2FBF3F37B6204E007
:101A1C007B690C4A02FB03F37B627B6A3B6202E04C
:101A2C00074B3B6200BF3B6A18462837BD4690BC4B
:101A3C00704700BF20790008307900080010024080
:101A4C0000127A0000093D0080B485B000AF7860C8
:101A5C000A4B1B680A4AA2FB03235B0A7A6802FB47
:101A6C0003F3FB6000BFFB685A1EFA60002BF9D130
:101A7C0000BF1437BD4680BC704700BF3800002043
:101A8C00D34D621080B586B000AF786000233B6107
:101A9C000023FB607B681B6803F00103002B7DD0E7
:101AAC000023FB754F4BDB6903F08053002B0DD1EA
:101ABC004C4A4C4BDB6943F08053D361494BDB6997
:101ACC0003F08053BB60BB680123FB75464B1B685E
:101ADC0003F48073002B18D1434A434B1B6843F427
:101AEC0080731360FEF784FB386108E0FEF780FB1F
:101AFC0002463B69D31A642B01D903236DE03A4BA0
:101B0C001B6803F48073002BF0D0364B1B6A03F474
:101B1C004073FB60FB68002B2ED07B685B6803F482
:101B2C004072FB689A4227D02E4B1B6A23F44073F9
:101B3C00FB602E4B01221A602C4B00221A60294AA2
:101B4C00FB681362FB6803F00103002B14D0FEF753
:101B5C004FFB38610AE0FEF74BFB02463B69D31A98
:101B6C0041F28832934201D9032336E01D4B1B6AA4
:101B7C0003F00203002BEED01A491A4B1B6A23F414
:101B8C0040727B685B6813430B62FB7D012B05D1B4
:101B9C00144A144BDB6923F08053D3617B681B68B8
:101BAC0003F00203002B08D00E490E4B5B6823F4A4
:101BBC0040427B689B6813434B607B681B6803F057
:101BCC001003002B08D00749064B5B6823F48002F6
:101BDC007B68DB6813434B60002318461837BD46FF
:101BEC0080BD00BF00100240007000404004424223
:101BFC0080B582B000AF78607B68002B01D10123E7
:101C0C0052E07B6800229A627B6893F85130DBB219
:101C1C00002B06D17B68002283F85020786805F0F1
:101C2C0045FC7B68022283F851207B681B687A682C
:101C3C001268126822F040021A607B681B687A688E
:101C4C0051687A68926811437A68D26811437A684D
:101C5C00126911437A68526911437A68926902F4E5
:101C6C00007211437A68D26911437A68126A11437F
:101C7C007A68926A0A431A607B681B687A68926970
:101C8C00120C02F004025A607B681B687A681268B6
:101C9C00D26922F40062DA617B6800225A657B68A3
:101CAC00012283F85120002318460837BD4680BD19
:101CBC0080B588B000AFF860B9603B601346FB801C
:101CCC000023FB77FB6893F85030012B01D10223E2
:101CDC001CE1FB68012283F85020FEF789FAB861F9
:101CEC00FB88FB82FB6893F85130DBB2012B02D0EE
:101CFC000223FB7701E1BB68002B02D0FB88002B91
:101D0C0002D10123FB77F8E0FB68032283F8512012
:101D1C00FB6800225A65FB68BA681A63FB68FA888C
:101D2C009A86FB68FA88DA86FB6800229A63FB685D
:101D3C0000229A87FB680022DA87FB6800225A642B
:101D4C00FB6800221A64FB689B68B3F5004F07D14F
:101D5C00FB681B68FA681268126842F480421A60C9
:101D6C00FB681B681B6803F04003402B07D0FB6823
:101D7C001B68FA681268126842F040021A60FB682D
:101D8C00DB68B3F5006F4BD1FB685B68002B02D0AE
:101D9C00FB8A012B3ED1FB681B68FA68126B128818
:101DAC00DA60FB681B6B9A1CFB681A63FB68DB8EA2
:101DBC009BB2013B9AB2FB68DA862BE0FB681B688E
:101DCC009B6803F00203022B12D1FB681B68FA68B4
:101DDC00126B1288DA60FB681B6B9A1CFB681A6327
:101DEC00FB68DB8E9BB2013B9AB2FB68DA8611E092
:101DFC00FEF7FEF90246BB69D21A3B689A4203D33E
:101E0C003B68B3F1FF3F02D13B68002B02D10323A7
:101E1C00FB7772E0FB68DB8E9BB2002BCED14CE0E3
:101E2C00FB685B68002B02D0FB8A012B40D1FB685E
:101E3C001B680C33FA68126B12781A70FB681B6BF8
:101E4C005A1CFB681A63FB68DB8E9BB2013B9AB28F
:101E5C00FB68DA862CE0FB681B689B6803F00203C6
:101E6C00022B13D1FB681B680C33FA68126B1278C7
:101E7C001A70FB681B6B5A1CFB681A63FB68DB8EC1
:101E8C009BB2013B9AB2FB68DA8611E0FEF7B0F91F
:101E9C000246BB69D21A3B689A4203D33B68B3F142
:101EAC00FF3F02D13B68002B02D10323FB7724E0D8
:101EBC00FB68DB8E9BB2002BCDD1BA693968F86810
:101ECC0000F03FFA0346002B02D0FB6820225A6533
:101EDC00FB689B68002B0AD100233B61FB681B68E5
:101EEC00DB683B61FB681B689B683B613B69FB687B
:101EFC005B6D002B01D00123FB77FB68012283F87B
:101F0C005120FB68002283F85020FB7F18462037B5
:101F1C00BD4680BD80B58CB000AFF860B9607A600A
:101F2C007B800123FB62002387F82B30FB6893F83E
:101F3C005030012B01D1022388E1FB68012283F888
:101F4C005020FEF755F97862FB6893F8513087F80A
:101F5C002330FB685B68FB617B887B8397F82330BD
:101F6C00012B0FD0FB69B3F5827F07D1FB689B680F
:101F7C00002B03D197F82330042B03D0022387F8CE
:101F8C002B3059E1BB68002B05D07B68002B02D0AD
:101F9C007B88002B03D1012387F82B304CE1FB68A5
:101FAC0093F85130DBB2042B03D0FB68052283F885
:101FBC005120FB6800225A65FB687A689A63FB68BB
:101FCC007A88DA87FB687A889A87FB68BA681A631A
:101FDC00FB687A88DA86FB687A889A86FB68002226
:101FEC001A64FB6800225A64FB681B681B6803F0C8
:101FFC004003402B07D0FB681B68FA681268126814
:10200C0042F040021A60FB68DB68B3F5006F78D1D0
:10201C00FB685B68002B02D07B8B012B66D1FB68C5
:10202C001B68FA68126B1288DA60FB681B6B9A1CCF
:10203C00FB681A63FB68DB8E9BB2013B9AB2FB68B0
:10204C00DA8653E0FB681B689B6803F00203022BE3
:10205C001BD1FB68DB8E9BB2002B16D0FB6A012BCD
:10206C0013D1FB681B68FA68126B1288DA60FB6884
:10207C001B6B9A1CFB681A63FB68DB8E9BB2013BE3
:10208C009AB2FB68DA860023FB62FB681B689B68CC
:10209C0003F00103012B19D1FB68DB8F9BB2002BE2
:1020AC0014D0FB689B6BFA681268D26892B21A80E3
:1020BC00FB689B6B9A1CFB689A63FB68DB8F9BB27B
:1020CC00013B9AB2FB68DA870123FB62FEF790F8BA
:1020DC0002467B6AD21ABB6B9A4207D3BB6BB3F135
:1020EC00FF3F03D0032387F82B30A5E0FB68DB8E82
:1020FC009BB2002BA6D1FB68DB8F9BB2002BA1D12E
:10210C007CE0FB685B68002B02D07B8B012B6BD1D6
:10211C00FB681B680C33FA68126B12781A70FB6838
:10212C001B6B5A1CFB681A63FB68DB8E9BB2013B72
:10213C009AB2FB68DA8657E0FB681B689B6803F071
:10214C000203022B1CD1FB68DB8E9BB2002B17D039
:10215C00FB6A012B14D1FB681B680C33FA68126BF9
:10216C0012781A70FB681B6B5A1CFB681A63FB68AD
:10217C00DB8E9BB2013B9AB2FB68DA860023FB62D2
:10218C00FB681B689B6803F00103012B19D1FB68EA
:10219C00DB8F9BB2002B14D0FB689B6BFA68126828
:1021AC00D268D2B21A70FB689B6B5A1CFB689A639C
:1021BC00FB68DB8F9BB2013B9AB2FB68DA87012389
:1021CC00FB62FEF715F802467B6AD21ABB6B9A4289
:1021DC0003D3BB6BB3F1FF3F02D1BB6B002B03D11D
:1021EC00032387F82B3027E0FB68DB8E9BB2002B98
:1021FC00A2D1FB68DB8F9BB2002B9DD17A6AB96BA5
:10220C00F86800F09EF80346002B06D0012387F8EF
:10221C002B30FB6820225A650EE0FB689B68002B74
:10222C000AD100237B61FB681B68DB687B61FB6860
:10223C001B689B687B617B69FB68012283F85120DA
:10224C00FB68002283F8502097F82B301846303763
:10225C00BD4680BD80B483B000AF78607B6893F8D6
:10226C005130DBB218460C37BD4680BC704780B588
:10227C0084B000AFF860B9603B601346FB714CE072
:10228C003B68B3F1FF3F48D0FDF7B2FF0246BB6994
:10229C00D21A3B689A4202D23B68002B3DD1FB68B4
:1022AC001B68FA681268526822F0E0025A60FB68F8
:1022BC005B68B3F5827F11D1FB689B68B3F5004F67
:1022CC0004D0FB689B68B3F5806F07D1FB681B6873
:1022DC00FA681268126822F040021A60FB689B6A66
:1022EC00B3F5005F0FD1FB681B68FA6812681268BF
:1022FC0022F400521A60FB681B68FA6812681268B4
:10230C0042F400521A60FB68012283F85120FB68EA
:10231C00002283F8502003230FE0FB681B689A68A7
:10232C00BB681A40BB689A420CBF01230023DBB286
:10233C001A46FB799A42A3D1002318461037BD46A2
:10234C0080BD80B586B002AFF860B9607A607B68FA
:10235C000093BB6800228021F868FFF788FF0346D2
:10236C00002B07D0FB685B6D43F02002FB685A65BD
:10237C00032300E0002318461037BD4680BD80B50E
:10238C0082B000AF78607B68002B01D101231DE087
:10239C007B6893F83D30DBB2002B06D17B680022C2
:1023AC0083F83C20786805F021F97B68022283F8D9
:1023BC003D207B681A687B6804331946104600F090
:1023CC000FFA7B68012283F83D200023184608375A
:1023DC00BD4680BD80B485B000AF78607B681B685B
:1023EC007A681268D26842F00102DA607B681B6876
:1023FC009B6803F00703FB60FB68062B07D07B6828
:10240C001B687A681268126842F001021A60002395
:10241C0018461437BD4680BC704780B582B000AFFB
:10242C0078607B681B681B6903F00203022B22D1C6
:10243C007B681B68DB6803F00203022B1BD17B68F3
:10244C001B686FF002021A617B6801221A777B68A5
:10245C001B689B6903F00303002B03D0786800F022
:10246C00A4F905E0786800F097F9786800F0A6F90F
:10247C007B6800221A777B681B681B6903F00403D6
:10248C00042B22D17B681B68DB6803F00403042B4C
:10249C001BD17B681B686FF004021A617B680222F7
:1024AC001A777B681B689B6903F44073002B03D07D
:1024BC00786800F07AF905E0786800F06DF97868D2
:1024CC0000F07CF97B6800221A777B681B681B691B
:1024DC0003F00803082B22D17B681B68DB6803F030
:1024EC000803082B1BD17B681B686FF008021A616C
:1024FC007B6804221A777B681B68DB6903F0030393
:10250C00002B03D0786800F050F905E0786800F0F3
:10251C0043F9786800F052F97B6800221A777B68DF
:10252C001B681B6903F01003102B22D17B681B68FE
:10253C00DB6803F01003102B1BD17B681B686FF05A
:10254C0010021A617B6808221A777B681B68DB69AA
:10255C0003F44073002B03D0786800F026F905E0F3
:10256C00786800F019F9786800F028F97B68002287
:10257C001A777B681B681B6903F00103012B0ED1D2
:10258C007B681B68DB6803F00103012B07D17B68B8
:10259C001B686FF001021A61786804F021FE7B68F9
:1025AC001B681B6903F08003802B0ED17B681B68B2
:1025BC00DB6803F08003802B07D17B681B686FF00E
:1025CC0080021A61786800F050FA7B681B681B69FE
:1025DC0003F04003402B0ED17B681B68DB6803F0D3
:1025EC004003402B07D17B681B686FF040021A61D7
:1025FC00786800F0ECF87B681B681B6903F020031B
:10260C00202B0ED17B681B68DB6803F02003202B8A
:10261C0007D17B681B686FF020021A61786800F0A4
:10262C001BFA00BF0837BD4680BD80B584B000AF33
:10263C00786039607B6893F83C30012B01D1022320
:10264C00A6E07B68012283F83C207B68022283F899
:10265C003D207B681B689B68FB60FB6823F077035D
:10266C00FB60FB6823F47F43FB607B681B68FA68A4
:10267C009A603B681B68402B67D0402B0BD8102B03
:10268C0073D0102B02D8002B6FD078E0202B6CD09D
:10269C00302B6AD073E0702B0DD0702B04D8502BDC
:1026AC0033D0602B41D06AE0B3F5805F66D0B3F5D0
:1026BC00005F17D063E07B6818683B6899683B68DB
:1026CC005A683B68DB6800F064F97B681B689B68A0
:1026DC00FB60FB6843F07703FB607B681B68FA6860
:1026EC009A604CE07B6818683B6899683B685A684C
:1026FC003B68DB6800F04DF97B681B687A681268F0
:10270C00926842F480429A6039E07B6818683B68B2
:10271C0059683B68DB681A4600F0C4F87B681B6894
:10272C005021184600F01BF929E07B6818683B68BB
:10273C0059683B68DB681A4600F0E2F87B681B6856
:10274C006021184600F00BF919E07B6818683B68AB
:10275C0059683B68DB681A4600F0A4F87B681B6874
:10276C004021184600F0FBF809E07B681A683B68CA
:10277C001B681946104600F0F2F800E000BF7B68B9
:10278C00012283F83D207B68002283F83C20002343
:10279C0018461037BD4680BD80B483B000AF78605A
:1027AC0000BF0C37BD4680BC704780B483B000AF0F
:1027BC00786000BF0C37BD4680BC704780B483B0D6
:1027CC0000AF786000BF0C37BD4680BC704780B44A
:1027DC0083B000AF786000BF0C37BD4680BC70473B
:1027EC0080B485B000AF786039607B681B68FB6093
:1027FC007B68294A93420BD07B68B3F1804F07D09A
:10280C007B68264A934203D07B68254A934208D1C1
:10281C00FB6823F07003FB603B685B68FA6813434A
:10282C00FB607B681C4A93420BD07B68B3F1804FF2
:10283C0007D07B68194A934203D07B68184A9342AD
:10284C0008D1FB6823F44073FB603B68DB68FA68D3
:10285C001343FB60FB6823F080023B685B69134306
:10286C00FB607B68FA681A603B689A687B68DA627E
:10287C003B681A687B689A627B68074A934203D16B
:10288C003B681A697B681A637B6801225A6100BF36
:10289C001437BD4680BC7047002C0140000400403A
:1028AC000008004080B487B000AFF860B9607A606F
:1028BC00FB681B6A7B61FB681B6A23F00102FB68E7
:1028CC001A62FB689B693B613B6923F0F0033B6137
:1028DC007B681B013A6913433B617B6923F00A0354
:1028EC007B617A69BB6813437B61FB683A699A61C7
:1028FC00FB687A691A6200BF1C37BD4680BC704702
:10290C0080B487B000AFF860B9607A60FB681B6A6E
:10291C0023F01002FB681A62FB689B697B61FB6801
:10292C001B6A3B617B6923F470437B617B681B03EF
:10293C007A6913437B613B6923F0A0033B61BB685D
:10294C001B013A6913433B61FB687A699A61FB6826
:10295C003A691A6200BF1C37BD4680BC704780B410
:10296C0085B000AF786039607B689B68FB60FB6862
:10297C0023F07003FB603A68FB68134343F00703D2
:10298C00FB607B68FA689A6000BF1437BD4680BC58
:10299C00704780B487B000AFF860B9607A603B6074
:1029AC00FB689B687B617B6923F47F437B613B689D
:1029BC001A027B681A43BB6813437A6913437B6121
:1029CC00FB687A699A6000BF1C37BD4680BC7047B3
:1029DC0080B485B000AF786039607B6893F83C3088
:1029EC00012B01D1022332E07B68012283F83C20C9
:1029FC007B68022283F83D207B681B685B68FB6068
:102A0C007B681B689B68BB60FB6823F07003FB60F2
:102A1C003B681B68FA681343FB60BB6823F08003B8
:102A2C00BB603B685B68BA681343BB607B681B6820
:102A3C00FA685A607B681B68BA689A607B680122E6
:102A4C0083F83D207B68002283F83C200023184645
:102A5C001437BD4680BC704780B483B000AF78603B
:102A6C0000BF0C37BD4680BC704780B483B000AF4C
:102A7C00786000BF0C37BD4680BC704780B584B011
:102A8C0000AF0346FB71FB79084A9B0013445B685B
:102A9C005B68FA7905490A44127A1046984703464E
:102AAC00FB73FB7B18461037BD4680BD8C020020A3
:102ABC0080B584B000AF0346FB710023FB73FB7938
:102ACC000D4AD35C002B11D1FB790B4A0121D15457
:102ADC00FB79094A9B0013445B681B68FA79064929
:102AEC000A44127A104698470346FB73FB7B184640
:102AFC001037BD4680BD00BF8C02002090B587B05A
:102B0C0000AFB9607A603B600346FB73FB7B0A4AFB
:102B1C009B0013445B689C68FB7B074A1344187A40
:102B2C003B687A68B968A0470346FB75FB7D18467D
:102B3C001C37BD4690BD00BF8C02002090B587B0FD
:102B4C0000AFB9607A603B600346FB73FB7B0A4ABB
:102B5C009B0013445B68DC68FB7B074A1344187AC0
:102B6C003B687A68B968A0470346FB75FB7D18463D
:102B7C001C37BD4690BD00BF8C02002080B584B0D0
:102B8C0000AF03463A60FB710B46BB71FB79094AF7
:102B9C009B0013445B681B69FA7906490A44107A56
:102BAC00B9793A6898470346FB73FB7B1846103794
:102BBC00BD4680BD8C02002080B487B000AFF860A9
:102BCC00B9607A60FB687B61BB683B6107E07B693D
:102BDC005A1C7A613A69511C396112781A707B68F7
:102BEC005A1E7A60002BF2D100BF1C37BD4680BC48
:102BFC00704780B487B000AFF860B9607A60FB684A
:102C0C007B6105E07B695A1C7A61BA68D2B21A7092
:102C1C007B685A1E7A60002BF4D100BF1C37BD466E
:102C2C0080BC704780B489B000AFF860B9607A603E
:102C3C00FB68FB61BB68BB6100237B6100BF7B68E9
:102C4C005A1E7A60002B0DD0FB695A1CFA611B7856
:102C5C001946BB695A1CBA611B78CB1A7B617B691C
:102C6C00002BECD07B6918462437BD4680BC7047DE
:102C7C0080B483B000AF7860396002E07B680133C8
:102C8C007B607B681B78002B05D07B681B781A4611
:102C9C003B689A42F2D17B681B7818460C37BD46CC
:102CAC0080BC704780B485B000AF78603960002379
:102CBC00BB60BB68FB603DE03249FA6813465B00C1
:102CCC0013449B000B441B68002B2ED02D49FA6833
:102CDC0013465B0013449B000B441A687B6803F596
:102CEC0080531B689A4222D12649FA6813465B002E
:102CFC0013449B000B4404331A687B6803F5805320
:102D0C0008331B689A4212D11E49FA6813465B00BD
:102D1C0013449B000B4408331A887B6803F58053DB
:102D2C0006331B889A4202D107E00123BB60FB6883
:102D3C000133FB60FB68012BBED9FB68022B09D168
:102D4C00BB68002B02D13B68022B01D1002313E09E
:102D5C00122311E03B68002B0BD10A49FA68134689
:102D6C005B0013449B000B440A331B88B3F5807F34
:102D7C0001D1102300E0002318461437BD4680BC57
:102D8C00704700BF7400002080B483B000AF0023F4
:102D9C007B6002E07B6801337B607B68012B09D888
:102DAC000A497A6813465B0013449B000B441B686A
:102DBC00002BEFD17B68022B14BF01230023DBB265
:102DCC0018460C37BD4680BC704700BF740000200D
:102DDC0080B485B000AF786039600023FB6030E0D0
:102DEC005A49FA6813465B0013449B000B441A685B
:102DFC007B6803F580531B689A421FD15349FA68CC
:102E0C0013465B0013449B000B4404331A687B6825
:102E1C0003F5805308331B689A420FD14B49FA686B
:102E2C0013465B0013449B000B4408331A887B68E1
:102E3C0003F5805306331B889A4206D0FB68013396
:102E4C00FB60FB68012BCBD900E000BFFB68022BB9
:102E5C004AD10023FB6002E0FB680133FB60FB6896
:102E6C00012B09D83949FA6813465B0013449B00BF
:102E7C000B441B68002BEFD1FB68022B01D1002304
:102E8C005FE07B6803F5805319683048FA68134695
:102E9C005B0013449B00034419607B6803F580536B
:102EAC00083319682948FA6813465B0013449B00E1
:102EBC000344043319607B6803F580530633188888
:102ECC002249FA6813465B0013449B000B440833F9
:102EDC0002461A801D49FA6813465B0013449B0096
:102EEC000B440A3300221A803B68002B0CD0174984
:102EFC00FA6813465B0013449B000B440A331B888F
:102F0C00002B01D000231CE03B68002B0BD10F4998
:102F1C00FA6813465B0013449B000B440A331B886E
:102F2C00013399B201E04FF480710848FA681346F6
:102F3C005B0013449B0003440A330A461A80FB6867
:102F4C00013318461437BD4680BC7047740000200E
:102F5C0080B485B000AF78607B68013B7B607B6898
:102F6C00012B2ED81B497A6813465B0013449B0037
:102F7C000B440A331B88FB81FB89B3F5807F01D19D
:102F8C000023FB81FB89002B02D0FB89013BFB81D9
:102F9C0010497A6813465B0013449B000B440A33B8
:102FAC00FA891A80FB89002B08D10A497A681346E2
:102FBC005B0013449B000B4400221A6000237B73BC
:102FCC0001E002237B737B7B18461437BD4680BC23
:102FDC00704700BF7400002080B485B000AF7860EB
:102FEC000023FB6016E00F49FA6813465B0013449C
:102FFC009B000B441A687B689A4208D10949FA680D
:10300C0013465B0013449B000B4400221A60FB68C0
:10301C000133FB60FB68012BE5D900BF1437BD46BB
:10302C0080BC70477400002080B586B000AF78601B
:10303C000023FB737B6803F5805304331B78002B50
:10304C0047D07B6803F581530C331B687B617B682D
:10305C0003F5805301331878796801237A69FFF7F7
:10306C006DFD0346002B02D00123FB7331E07B681E
:10307C0003F58053043300221A707B6803F58153E7
:10308C001B687A69D21A7B6803F5805318331B6866
:10309C009A421ED27B6803F5805303331B783B6145
:1030AC0014E07B6803F5805318331B687A6913446A
:1030BC007B617B6803F580530133187879680123B1
:1030CC007A69FFF73BFD3B69013B3B613B69012B97
:1030DC00E7D8FB7B18461837BD4680BD80B584B059
:1030EC0000AF786039600023FB737B6803F5815374
:1030FC000C331A683B689A421FD07868FFF794FF2C
:10310C000346FB73FB7B002B17D17B6803F58053C5
:10311C0001331878796801233A68FFF7EFFC03460E
:10312C00002B04D04FF0FF333B600123FB737B6813
:10313C0003F581530C333A681A60FB7B1846103741
:10314C00BD4680BD80B584B000AF78607868FFF76D
:10315C006BFF0346FB73FB7B002B40F0BD807B6851
:10316C0003F580531B78032B40F0A7807B6803F595
:10317C00805305331B78012B40F09F8078687B6867
:10318C0003F580530A331B881A460021FFF731FDE3
:10319C007B68552283F8FE217B68AA2283F8FF21E5
:1031AC007B6852221A707B6852225A707B686122AB
:1031BC009A707B684122DA707B68722283F8E42172
:1031CC007B68722283F8E5217B68412283F8E62133
:1031DC007B68612283F8E7217B6803F58053103309
:1031EC001B68DAB27B6883F8E8217B6803F58053AF
:1031FC0010331B689BB21B0A9BB2DAB27B6883F854
:10320C00E9217B6803F5805310331B681B0CDAB281
:10321C007B6883F8EA217B6803F5805310331B68C5
:10322C001B0EDAB27B6883F8EB217B6803F58053C5
:10323C000C331B68DAB27B6883F8EC217B6803F5EE
:10324C0080530C331B689BB21B0A9BB2DAB27B68AF
:10325C0083F8ED217B6803F580530C331B681B0C42
:10326C00DAB27B6883F8EE217B6803F580530C336C
:10327C001B681B0EDAB27B6883F8EF217B6803F5C1
:10328C0080531C331B685A1C7B6803F581530C3329
:10329C001A607B6803F580530133187879687B6872
:1032AC0003F581530C331A680123FFF747FC7B6845
:1032BC0003F58053053300221A707B6803F58053A5
:1032CC0001331B78002200211846FFF757FC0346F8
:1032DC00002B01D00123FB73FB7B18461037BD4636
:1032EC0080BD80B483B000AF786039603B68023B2E
:1032FC003B607B6803F5805314331B689A1E3B6854
:10330C009A4201D800230EE07B6803F58053023308
:10331C001B781A463B6803FB02F27B6803F581536A
:10332C0008331B68134418460C37BD4680BC7047E5
:10333C0080B586B000AF786039603B68012B07D947
:10334C007B6803F5805314331A683B689A4202D8A1
:10335C0001237B61E9E04FF0FF337B617B6803F570
:10336C0080531B78022B68D0032B00F09980012B23
:10337C0040F0D1803B683B613B695B083A69134480
:10338C003B617B6803F581531A687B6803F58053B6
:10339C000A331B8819463B69B3FBF1F313441946F6
:1033AC007868FFF79BFE0346002B40F0B7803B6923
:1033BC005A1C3A617A6802F580520A321288B3FBC1
:1033CC00F2F102FB01F29B1A7A68D35CFB607B681A
:1033DC0003F581531A687B6803F580530A331B8805
:1033EC0019463B69B3FBF1F3134419467868FFF7B0
:1033FC0075FE0346002B40F093807B6803F58053E9
:10340C000A331B881A463B69B3FBF2F102FB01F24B
:10341C009B1A7A68D35C1B021A46FB681343FB6049
:10342C003B6803F00103002B02D0FB681B0902E090
:10343C00FB68C3F30B037B6177E07B6803F5815377
:10344C001A687B6803F580530A331B885B089BB2B0
:10345C0019463B68B3FBF1F3134419467868FFF740
:10346C003DFE0346002B5DD13B685A007B6803F59B
:10347C0080530A331B88B2FBF3F103FB01F3D31A1D
:10348C007A681344BB60BB6801331B781B021AB209
:10349C00BB681B781BB213431BB29BB27B6144E02D
:1034AC007B6803F581531A687B6803F580530A33F4
:1034BC001B889B089BB219463B68B3FBF1F3134482
:1034CC0019467868FFF70AFE0346002B2CD13B689F
:1034DC009A007B6803F580530A331B88B2FBF3F127
:1034EC0003FB01F3D31A7A681344BB60BB68033344
:1034FC001B781A06BB6802331B781B041343BA688B
:10350C000132127812021343BA681278134323F073
:10351C0070437B6109E001237B6106E000BF04E09E
:10352C0000BF02E000BF00E000BF7B6918461837FF
:10353C00BD4680BD80B588B000AFF860B9607A60D8
:10354C00BB68012B07D9FB6803F5805314331A6849
:10355C00BB689A4202D80223FB7743E1FB6803F570
:10356C0080531B78022B00F09A80032B00F0D38041
:10357C00012B40F02D81BB68BB61BB695B08BA694C
:10358C001344BB61FB6803F581531A68FB6803F5B0
:10359C0080530A331B881946BB69B3FBF1F3134400
:1035AC001946F868FFF79AFD0346FB77FB7F002B63
:1035BC0040F01181BB695A1CBA61FA6802F580525D
:1035CC000A321288B3FBF2F102FB01F29B1AFA6881
:1035DC0013447B61BB6803F00103002B0DD07B69A6
:1035EC001B785BB203F00F035AB27B68DBB21B0192
:1035FC005BB213435BB2DBB201E07B68DBB27A698E
:10360C001370FB6803F58053043301221A70FB68B6
:10361C0003F581531A68FB6803F580530A331B8842
:10362C001946BB69B3FBF1F313441946F868FFF76D
:10363C0055FD0346FB77FB7F002B40F0CE80FB68EB
:10364C0003F580530A331B881A46BB69B3FBF2F1AE
:10365C0002FB01F29B1AFA6813447B61BB6803F00E
:10366C000103002B03D07B681B09DBB20EE07B69E6
:10367C001B785BB223F00F035AB27B681B0A5BB258
:10368C0003F00F035BB213435BB2DBB27A691370C6
:10369C00FB6803F58053043301221A70A2E0FB6827
:1036AC0003F581531A68FB6803F580530A331B88B2
:1036BC005B089BB21946BB68B3FBF1F31344194684
:1036CC00F868FFF70BFD0346FB77FB7F002B40F000
:1036DC008680BB685A00FB6803F580530A331B884D
:1036EC00B2FBF3F103FB01F3D31AFA6813447B61C9
:1036FC007B68DAB27B691A707B6901337A6892B2A3
:10370C00120A92B2D2B21A70FB6803F580530433DA
:10371C0001221A7066E0FB6803F581531A68FB6896
:10372C0003F580530A331B889B089BB21946BB6870
:10373C00B3FBF1F313441946F868FFF7CFFC0346CB
:10374C00FB77FB7F002B4CD1BB689A00FB6803F521
:10375C0080530A331B88B2FBF3F103FB01F3D31A3A
:10376C00FA6813447B617B6903331B781A067B6907
:10377C0002331B781B0413437A690132127812024C
:10378C0013437A691278134303F070437A68134336
:10379C007B607B68DAB27B691A707B6901337A686B
:1037AC0092B2120A92B2D2B21A707B6902337A6860
:1037BC00120CD2B21A707B6903337A68120ED2B231
:1037CC001A70FB6803F58053043301221A7009E068
:1037DC000223FB7706E000BF04E000BF02E000BF5D
:1037EC0000E000BFFB7F18462037BD4680BD80B58A
:1037FC0084B000AF786039603B68012B07D97B68D7
:10380C0003F5805314331A683B689A4202D802239A
:10381C00FB734FE00023FB7340E039687868FFF7D7
:10382C0087FDB860BB68002B41D0BB68012B02D16F
:10383C000223FB733EE0BB68B3F1FF3F02D10123CF
:10384C00FB7337E0002239687868FFF773FE034694
:10385C00FB73FB7B002B2CD17B6803F5805310335F
:10386C001B68B3F1FF3F17D07B6803F5805310330F
:10387C001B685A1C7B6803F5805310331A607B68F5
:10388C0003F5805305331B7843F00103DAB27B68F0
:10389C0003F5805305331A70BB683B607B6803F5F6
:1038AC00805314331A683B689A42B6D802E000BFC2
:1038BC0000E000BFFB7B18461037BD4680BD80B5CD
:1038CC0086B000AF786039603B68002B13D17B6801
:1038DC0003F580530C331B683B613B69002B07D00D
:1038EC007B6803F5805314331A683B699A421ED8DF
:1038FC0001233B611BE039687868FFF719FDB8605C
:10390C00BB68012B01D8012386E0BB68B3F1FF3FF4
:10391C0001D1BB6880E07B6803F5805314331A68CF
:10392C00BB689A4201D9BB6876E03B683B613B6956
:10393C007B617B6901337B617B6803F580531433B6
:10394C001A687B699A4207D802237B617A693B69C2
:10395C009A4201D900235FE079697868FFF7E8FCA7
:10396C00B860BB68002B0ED0BB68B3F1FF3F02D030
:10397C00BB68012B01D1BB684EE07A693B699A4266
:10398C00D7D1002348E000BF6FF0704279697868A6
:10399C00FFF7D0FD0346FB73FB7B002B09D13B6883
:1039AC00002B06D07A6939687868FFF7C3FD0346A7
:1039BC00FB73FB7B002B26D17B6803F580530C3308
:1039CC007A691A607B6803F5805310331B68B3F176
:1039DC00FF3F20D07B6803F5805310331B685A1EC1
:1039EC007B6803F5805310331A607B6803F58053B2
:1039FC0005331B7843F00103DAB27B6803F580537F
:103A0C0005331A7007E0FB7B012B02D14FF0FF331B
:103A1C0000E001237B617B6918461837BD4680BDE9
:103A2C0080B487B000AF786039607B6803F5815350
:103A3C0004331B6804333B617B6803F580531B68BC
:103A4C0003F580530A331B881A463B68B3FBF2F22A
:103A5C007B6803F580531B6803F5805302331B7896
:103A6C00B2FBF3F37B613B691A1D3A611B68FB6087
:103A7C00FB68002B01D1002310E07A69FB689A42A5
:103A8C0007D37A69FB68D31A7B613B6904333B61CA
:103A9C00E9E700BF3B691A687B69134418461C3779
:103AAC00BD4680BC704780B586B000AF7860396089
:103ABC003B689AB27B6803F5805306331A807B68A7
:103ACC0003F5805308331B687B617B69012B0AD09B
:103ADC007B6803F580531B6803F5805314331A6815
:103AEC007B699A4201D80223B4E07B69002B11D187
:103AFC007B6803F580531B6803F580531B78032BFD
:103B0C0008D17B6803F580531B6803F5815304339C
:103B1C001B687B617B69002B17D17B6803F5805395
:103B2C001B6803F5805308331B881A463B689A427E
:103B3C0001D802238EE07B6803F580531B6803F5E4
:103B4C00815304331B683B6146E07B6803F580536B
:103B5C001B6803F580530A331B885B099BB21A461A
:103B6C007B6803F580531B6803F5805302331B7885
:103B7C0003FB02F3FB6022E07B6803F580531B68B8
:103B8C0079691846FFF7D4FB78617B69B3F1FF3F85
:103B9C0001D101235EE07B69012B0AD97B6803F517
:103BAC0080531B6803F5805314331A687B699A425F
:103BBC0001D802234EE03A68FB68D31A3B603A689E
:103BCC00FB689A42D8D27B6803F580531B687969ED
:103BDC001846FFF786FB38617B6803F580530C337E
:103BEC007A691A603B69002B01D1022332E07B68B1
:103BFC0003F580531B6803F580530A331B885B095C
:103C0C009BB21A463B68B3FBF2F23B691A447B68E1
:103C1C0003F5805310331A607B6803F580531B68DF
:103C2C0018467B6803F580531B6803F580530A33F1
:103C3C001B885B099BB21A463B68B3FBF2F102FB93
:103C4C0001F29B1A5B01C2187B6803F58053143395
:103C5C001A60002318461837BD4680BD90B587B052
:103C6C0000AF786039607B6803F5805306331B889E
:103C7C000133FB60FB689BB2002B06D07B6803F51D
:103C8C00805310331B68002B01D1042344E17B6863
:103C9C0003F580531B6803F580530A331B885B09BB
:103CAC009BB21A46FB68B3FBF2F102FB01F29B1AC2
:103CBC00002B40F00C817B6803F5805310331B689C
:103CCC005A1C7B6803F5805310331A607B6803F52C
:103CDC0080530C331B68002B0ED17B6803F580538B
:103CEC001B6803F5805308331B881A46FB689A42FD
:103CFC0000F2ED8004230FE17B6803F580531B6811
:103D0C0003F580530A331B885B099BB21A46FB6888
:103D1C00B3FBF2F27B6803F580531B6803F5805309
:103D2C0002331B78013B1340002B40F0D0807B68A2
:103D3C0003F580531A687B6803F580530C331B68BA
:103D4C0019461046FFF7F4FA78617B69012B01D80C
:103D5C000223E1E07B69B3F1FF3F01D10123DBE0FA
:103D6C007B6803F580531B6803F5805314331A6882
:103D7C007B699A4200F297803B68002B01D10423A7
:103D8C00CAE07B6803F580531A687B6803F580539F
:103D9C000C331B6819461046FFF791FD78617B695F
:103DAC00002B01D10723B7E07B69012B01D1022342
:103DBC00B2E07B69B3F1FF3F01D10123ACE07B683A
:103DCC0003F580531B681846FFF72EF90346002BAA
:103DDC0001D00123A0E07B6803F580531B681846D3
:103DEC007B6803F580531B6803F580530A331B88EB
:103DFC001A460021FEF7FDFE7B6803F580531C6814
:103E0C007B6803F580531B6879691846FFF769FADC
:103E1C00024604F581530C331A6000233B6124E005
:103E2C007B6803F580531B6803F580530433012230
:103E3C001A707B6803F580531B681846FFF7F4F87B
:103E4C000346002B01D0012366E07B6803F5805309
:103E5C001A6802F581530C331B68591C02F5815307
:103E6C000C3319603B6901333B617B6803F580536C
:103E7C001B6803F5805302331B781A463B699A4240
:103E8C00CED87B6803F5805319687B6803F58053A3
:103E9C001B6803F581530C331A683B69D21A01F580
:103EAC0081530C331A607B6803F580530C337A69A9
:103EBC001A607B6803F580531B6879691846FFF715
:103ECC0010FA02467B6803F5805310331A60FB68C6
:103EDC009AB27B6803F5805306331A807B6803F52E
:103EEC0080531B6818467B6803F580531B6803F5E9
:103EFC0080530A331B885B099BB21A46FB68B3FBE1
:103F0C00F2F102FB01F29B1A5B01C2187B6803F50C
:103F1C00805314331A60002318461C37BD4690BDDD
:103F2C0080B584B000AF7860396000217868FFF705
:103F3C00BAFD0346FB73FB7B002B38D10023BB601F
:103F4C007B6803F580531A687B6803F58053103344
:103F5C001B6819461046FFF7C1F80346FB73FB7B41
:103F6C00002B23D17B6803F5805314331B681B781B
:103F7C00E52B07D07B6803F5805314331B681B7843
:103F8C00002B07D1BB680133BB60BA683B689A420F
:103F9C0002D10CE00023BB6001217868FFF75EFEC4
:103FAC000346FB73FB7B002BCAD000E000BFFB7BFE
:103FBC00042B01D10723FB73FB7B18461037BD463E
:103FCC0080BD80B485B000AF786039603B681B332E
:103FDC001B781B021AB23B681A331B781BB21343B3
:103FEC001BB29BB2FB607B6803F580531B78032BE1
:103FFC000FD13B6815331B781B021AB23B68143384
:10400C001B781BB213431BB29BB21B04FA681343FD
:10401C00FB60FB6818461437BD4680BC704780B403
:10402C0083B000AF786039607B681A333A68D2B2DB
:10403C001A707B681B333A6892B2120A92B2D2B2EF
:10404C001A707B6814333A68120CD2B21A707B68FF
:10405C0015333A68120C92B2120A92B2D2B21A709A
:10406C0000BF0C37BD4680BC7047000080B586B0E1
:10407C0000AF786039603B681B7823F040035A1E10
:10408C0013465B0013449B0013447B6100233B618C
:10409C000123FB812B4A3B6913441B7801333A689B
:1040AC0013441B781B021AB226493B690B441B783C
:1040BC0019463B680B441B781BB213431BB2BB81E4
:1040CC00FB89002B19D0BB89184602F083F90346F3
:1040DC00FB817B69FE2B0ED87B695A1C7A615B00D5
:1040EC007A6813441B88184602F074F903461A4682
:1040FC00FB89934208D000231FE0BB894FF6FF7267
:10410C00934201D0002318E03B6901333B613B69CA
:10411C000C2BBFD93B681B7803F04003002B0BD052
:10412C00FB89002B08D07B695B007A6813441B88E1
:10413C00002B01D0002300E0012318461837BD46A0
:10414C0080BD00BF087A000880B489B000AFF86069
:10415C00B96011461A460B46FB711346BB71BB681E
:10416C000D33BA791A70BB680B330F221A70BB6807
:10417C000C3300221A70BB681A3300221A70BB6809
:10418C001B3300221A70FB795A1E13465B00134432
:10419C009B001344FB610023FB820023BB61FB8A61
:1041AC004FF6FF72934207D0FB695A1CFA615B0011
:1041BC00FA6813441B88FB821C4ABB6913441B78A6
:1041CC001A46BB681344FA8AD2B21A70174ABB69F2
:1041DC0013441B780133BA681344FA8A120A92B258
:1041EC00D2B21A70FB8A002B02D14FF6FF73FB82FE
:1041FC00BB690133BB61BB690C2BD0D9FB8A4FF671
:10420C00FF72934206D0FB695B00FA6813441B886B
:10421C00002B03D1FB7943F04003FB71BB68FA79A7
:10422C001A7000BF2437BD4680BC7047087A00085E
:10423C0080B58CB000AFF860B9607A603B600B223F
:10424C00B968F868FEF7B8FC3B68052B2BD93B68BE
:10425C00FB6122E07B689A1C7A601B887B840023BC
:10426C00BB6217E0FB695A007B8C03F0010313441B
:10427C00FB617B8C5B087B84FB6903F48033002B34
:10428C0005D0FB6983F4883383F02103FB61BB6A9F
:10429C000133BB62BB6A0F2BE4D97B681B88002BF4
:1042AC00D8D1FB693B600723BB623B68DBB203F0F0
:1042BC000F03DBB2303387F82F3097F82F30392BC0
:1042CC0004D997F82F30073387F82F30BB6A5A1E62
:1042DC00BA6207F13002134497F82F2003F81C2C14
:1042EC003B681B093B603B68002BDED107F11402D5
:1042FC00BB6A13447E221A7000237B6202E07B6A45
:10430C0001337B627A6ABB6A9A4205D2FA687B6A8D
:10431C0013441B78202BF2D17B6A5A1C7A62FA6800
:10432C001A44BB6A072B08D8BB6A591CB96207F13F
:10433C0030010B4413F81C3C00E0202313707B6A03
:10434C00072BE9D900BF3037BD4680BD80B485B09E
:10435C0000AF78600023FB730B23BB60FB7BDAB2EE
:10436C005208DB011343DAB27B68591C79601B7865
:10437C001344FB73BB68013BBB60BB68002BEDD1E6
:10438C00FB7B18461437BD4680BC704780B586B0A1
:10439C0000AF786000217868FFF785FB0346FB755A
:1043AC00FB7D002B01D0FB7DC1E0FF233B753B7DEA
:1043BC007B757B6803F5815304334FF6FF721A80CB
:1043CC007B6803F580531A687B6803F580531033C0
:1043DC001B6819461046FEF781FE0346FB75FB7DF4
:1043EC00002B40F09E807B6803F5805314331B68D0
:1043FC003B613B691B78BB75BB7D002B02D1042351
:10440C00FB7593E03B690B331B7803F03F03FB73A5
:10441C00BB7DE52B07D0FB7B03F00803002B0CD0F6
:10442C00FB7B0F2B09D0FF237B757B6803F5815336
:10443C0004334FF6FF721A8068E0FB7B0F2B39D1E7
:10444C007B6803F581531B68002B5FD0BB7D03F0A9
:10445C004003002B12D03B695B7B3B75BB7D23F08B
:10446C004003BB75BB7D7B757B6803F580530633BE
:10447C001A887B6803F5815304331A80BA7D7B7DDF
:10448C009A4214D13B690D331B783A7D9A420ED176
:10449C007B6803F581531B6839691846FFF7E6FD05
:1044AC000346002B03D07B7D013BDBB200E0FF23F6
:1044BC007B752BE07B7D002B07D13869FFF746FF1E
:1044CC0003461A463B7D93422DD07B6803F58053FF
:1044DC0018331B680B331B7803F00103002B0CD132
:1044EC007B6803F5805318331B680B221946386917
:1044FC00FEF798FB0346002B17D0FF237B757B68D8
:10450C0003F5815304334FF6FF721A80002178684B
:10451C00FFF7A4FB0346FB75FB7D002B3FF450AF6C
:10452C0004E000BF02E000BF00E000BFFB7D1846C6
:10453C001837BD4680BD000080B58CB000AF7860E8
:10454C007B6803F5805318331B683B627B6803F56B
:10455C0081531B68FB6107F10C030C22396A184666
:10456C00FEF72AFBFB7D03F00103002B39D03B6ADD
:10457C000B3300221A707B6803F5815300221A60FA
:10458C000123BB6213E007F10C01BB6AFA69386ABC
:10459C00FFF74EFE7868FFF7F9FE034687F82F30D9
:1045AC0097F82F30002B06D1BB6A0133BB62BB6A74
:1045BC00632BE8D900E000BFBB6A642B01D1072351
:1045CC00E4E097F82F30042B02D097F82F30DDE081
:1045DC003B6A0B33FA7D1A707B6803F58153FA69D9
:1045EC001A60FB7D03F00203002B14D00023BB6286
:1045FC0002E0BB6A0133BB62BB6A5B00FA6913441D
:10460C001B88002BF5D1BB6A1933624AA2FB03232A
:10461C009B087B6201E001237B62796A7868FFF773
:10462C007FFC034687F82F3097F82F30002B60D192
:10463C007B6A013B7B627B6A002B5AD07B6803F55B
:10464C00805306331B881A467B6AD31A194678683E
:10465C00FFF729FA034687F82F3097F82F30002BF5
:10466C0047D17B6803F5805318331B681846FFF756
:10467C006DFE0346FB767B6803F580531A687B68F6
:10468C0003F5805310331B6819461046FEF726FDC0
:10469C00034687F82F3097F82F30002B28D17B68F2
:1046AC0003F5815318687B6803F58053143319683C
:1046BC007B6ADAB2FB7EFFF747FD7B6803F580531C
:1046CC001B6803F58053043301221A7000217868AB
:1046DC00FFF7C4FA034687F82F3097F82F30002BDA
:1046EC0007D17B6A013B7B627B6A002BC3D100E064
:1046FC0000BF97F82F30002B46D17B6803F5805311
:10470C001A687B6803F5805310331B6819461046F2
:10471C00FEF7E4FC034687F82F3097F82F30002B78
:10472C0032D17B6803F5805314331B68202200219F
:10473C001846FEF75EFA7B6803F58053143318684D
:10474C007B6803F5805318331B680B221946FEF760
:10475C0033FA7B6803F5805314331B6803F10C02A6
:10476C007B6803F5805318331B680B331B7803F0FD
:10477C001803DBB213707B6803F580531B6803F5D9
:10478C008053043301221A7097F82F3018463037B3
:10479C00BD4680BD4FECC44E80B58AB000AF78608A
:1047AC0039603B681B683B6102E03B6901333B614C
:1047BC003B691B782F2BF8D03B691B785C2BF4D012
:1047CC007B6803F581531B68FB6000237B617B696D
:1047DC00BB61BB695A1CBA613A6913441B78BB8430
:1047EC00BB8C1F2B2FD9BB8C2F2B2CD0BB8C5C2BB9
:1047FC0029D07B69FE2B01D906238BE1BB8CDBB264
:10480C00BB84BB8C0121184601F0AAFD0346BB8476
:10481C00BB8C002B01D106237CE1BB8C7F2B09D8F0
:10482C00BB8C19468F48FEF723FA0346002B01D0A8
:10483C0006236FE17B695A1C7A615B00FA681344AA
:10484C00BA8C1A80C5E73A69BB691A443B681A608E
:10485C00BB8C1F2B01D8042300E0002387F82630E3
:10486C0011E07B6903F10043013B5B00FA681344E0
:10487C001B88BB84BB8C202B02D0BB8C2E2B06D16F
:10488C007B69013B7B617B69002BEAD100E000BFB7
:10489C007B69002B01D106233CE17B695B00FA6844
:1048AC00134400221A807B6803F5805318331B686D
:1048BC000B2220211846FEF79CF90023BB6102E075
:1048CC00BB690133BB61BB695B00FA6813441B888D
:1048DC00202BF5D0BB695B00FA6813441B882E2B88
:1048EC00EED0BB69002B09D097F8263043F00303B8
:1048FC0087F8263002E07B69013B7B617B69002BEA
:10490C0009D07B6903F10043013B5B00FA68134457
:10491C001B882E2BEFD100233B62002387F8273016
:10492C000823FB61BB695A1CBA615B00FA6813442B
:10493C001B88BB84BB8C002B00F09280BB8C202B83
:10494C0006D0BB8C2E2B0AD1BA697B699A4206D051
:10495C0097F8263043F0030387F826307FE03A6A55
:10496C00FB699A4203D2BA697B699A4223D1FB69EB
:10497C000B2B06D197F8263043F0030387F826302B
:10498C0077E0BA697B699A4205D097F8263043F0F4
:10499C00030387F82630BA697B699A4268D87B6929
:1049AC00BB6108233B620B23FB6197F827309B000C
:1049BC0087F8273053E0BB8C7F2B14D9BB8C00219C
:1049CC00184601F0CDFC0346BB84BB8C002B04D0F5
:1049DC00BB8C803B244AD35CBB8497F8263043F0D5
:1049EC00020387F82630BB8C002B07D0BB8C1946F2
:1049FC001E48FEF73DF90346002B08D05F23BB840D
:104A0C0097F8263043F0030387F826301BE0BB8C65
:104A1C00402B09D9BB8C5A2B06D897F8273043F07A
:104A2C00020387F827300EE0BB8C602B0BD9BB8CB4
:104A3C007A2B08D897F8273043F0010387F82730F2
:104A4C00BB8C203BBB847B6803F5805318331A68FE
:104A5C003B6A591C39621344BA8CD2B21A7061E7A2
:104A6C0000BF06E034790008887900084079000816
:104A7C0000BF7B6803F5805318331B681B78E52B4C
:104A8C0006D17B6803F5805318331B6805221A7016
:104A9C00FB69082B04D197F827309B0087F8273047
:104AAC0097F8273003F00C030C2B05D097F8273020
:104ABC0003F00303032B05D197F8263043F00203D0
:104ACC0087F8263097F8263003F00203002B17D115
:104ADC0097F8273003F00303012B05D197F8263004
:104AEC0043F0100387F8263097F8273003F00C03B7
:104AFC00042B05D197F8263043F0080387F82630AD
:104B0C007B6803F5805318331B680B3397F826200A
:104B1C001A70002318462837BD4680BD80B584B076
:104B2C0000AF786039603B681B782F2B03D03B6853
:104B3C001B785C2B02D13B6801333B607B6803F52F
:104B4C008053083300221A603B681B781F2B0CD84B
:104B5C0000217868FEF7A7FF0346FB737B6803F51B
:104B6C008053143300221A604CE03B461946786897
:104B7C00FFF712FE0346FB73FB7B002B3DD17868DD
:104B8C00FFF704FC0346FB737B6803F58053183373
:104B9C001B68DB7ABB73FB7B002B0AD0FB7B042BE3
:104BAC002DD1BB7B03F00403002B28D10523FB7311
:104BBC0025E0BB7B03F00403002B22D17B6803F5BB
:104BCC00805314331B68BB60BB680B331B7803F03A
:104BDC001003002B02D10523FB7313E07B6803F554
:104BEC0080531B68B9681846FFF7EBF902467B68DF
:104BFC0003F5805308331A60B7E700BF02E000BF2B
:104C0C0000E000BFFB7B18461037BD4680BD80B46A
:104C1C0087B000AF78604FF0FF333B617B681B6857
:104C2C00002B31D07B681B687B6102E07B69013310
:104C3C007B617B691B781F2B03D97B691B783A2B13
:104C4C00F4D17B691B783A2B1CD17B681B68FB6009
:104C5C00FB685A1CFA601B78303BBB60BB68092BA5
:104C6C000ED8FA687B699A420AD1BB68002B07D12F
:104C7C00BB683B617B6901337B617B687A691A6035
:104C8C003B6902E000233B613B6918461C37BD467B
:104C9C0080BC704780B582B000AF786039607B68AB
:104CAC0003F58053043300221A707B6803F581539B
:104CBC000C334FF0FF321A6039687868FEF70EFA41
:104CCC000346002B01D003234AE07B6803F5FF73F6
:104CDC0001331B781B021AB27B6893F8FE311BB2AE
:104CEC0013431BB2204A934201D0022338E07B6865
:104CFC00363303331B781A067B68363302331B7842
:104D0C001B0413437A6836320132127812021343B1
:104D1C007A6892F83620134323F07F43134A934268
:104D2C0001D100231CE07B68523303331B781A0635
:104D3C007B68523302331B781B0413437A6852325C
:104D4C0001321278120213437A6892F852201343FC
:104D5C0023F07F43054A934201D1002300E0012355
:104D6C0018460837BD4680BD55AAFFFF4641540082
:104D7C0080B596B000AFF860B9601346FB71FB6864
:104D8C0000221A60B868FFF742FFF863FB6B002B38
:104D9C0001DA0B233CE3B34AFB6B52F82330BB63C1
:104DAC00BB6B002B01D10C2332E3FB68BA6B1A608E
:104DBC00BB6B03F580531B78002B1DD0BB6B03F52D
:104DCC00805301331B781846FDF758FE034687F8CD
:104DDC00373097F8373003F00103002B0CD1FB79F7
:104DEC00002B07D097F8373003F00403002B01D0C9
:104DFC000A230DE300230BE3BB6B03F58053002266
:104E0C001A70FB6BDAB2BB6B03F5805301331A706B
:104E1C00BB6B03F5805301331B781846FDF748FE36
:104E2C00034687F8373097F8373003F00103002B2F
:104E3C0001D00323ECE2FB79002B07D097F8373035
:104E4C0003F00403002B01D00A23E1E2BB6B03F552
:104E5C00805301331878BB6B03F580530A331A4621
:104E6C000221FDF78BFE0346002B0FD1BB6B03F524
:104E7C0080530A331B88B3F5007F07D3BB6B03F554
:104E8C0080530A331B88B3F5805F01D90123BFE23D
:104E9C0000233B65396DB86BFFF7FCFE034687F8C2
:104EAC00573097F85730012B55D100233B6429E03C
:104EBC00BA6B3B6C1B0103F5DF7313443B633B6B19
:104ECC0004331B78002B12D03B6B0B331B781A0668
:104EDC003B6B0A331B781B0413433A6B0932127871
:104EEC00120213433A6B083212781A4300E0002284
:104EFC003B6C9B0007F158010B4443F8442C3B6C72
:104F0C0001333B643B6C032BD2D900233B643B6CD9
:104F1C00002B02D03B6C013B3B643B6C9B0007F1CC
:104F2C005802134453F8443C3B653B6D002B05D0B1
:104F3C00396DB86BFFF7AEFE034600E0022387F82D
:104F4C00573097F85730002B05D03B6C01333B643E
:104F5C003B6C032BE1D997F85730032B01D101237C
:104F6C0056E297F85730002B01D00D2350E2BB6B63
:104F7C001B7B1B021AB2BB6BDB7A1BB213431BB23B
:104F8C009AB2BB6B03F580530A331B889A4201D04B
:104F9C000D233DE2BB6BDB7D1B021AB2BB6B9B7D11
:104FAC001BB213431BB29BB2FB64FB6C002B12D1E4
:104FBC00BB6B93F827301A06BB6B93F826301B0497
:104FCC001343BA6B92F8252012021343BA6B92F872
:104FDC0024201343FB64BB6B03F580531833FA6C2A
:104FEC001A60BB6B1A7CBB6B03F5805303331A70CE
:104FFC00BB6B03F5805303331B78012B08D0BB6BC1
:10500C0003F5805303331B78022B01D00D23FFE1F2
:10501C00BB6B03F5805303331B781A46FB6C02FB06
:10502C0003F3FB64BB6B5A7BBB6B03F580530233FE
:10503C001A70BB6B03F5805302331B78002B0ED018
:10504C00BB6B03F5805302331B781A46BB6B03F51D
:10505C00805302331B78013B1340002B04D00D23EB
:10506C00D6E100BF6C000020BB6B9B7C1B021AB20C
:10507C00BB6B5B7C1BB213431BB29AB2BB6B03F5CD
:10508C00805308331A80BB6B03F5805308331A889E
:10509C00BB6B03F580530A331B885B099BB2B2FBD5
:1050AC00F3F103FB01F3D31A9BB2002B01D00D23B8
:1050BC00AEE1BB6B1B7D1B021AB2BB6BDB7C1BB264
:1050CC0013431BB29BB2BB64BB6C002B12D1BB6BEA
:1050DC0093F823301A06BB6B93F822301B0413434E
:1050EC00BA6B92F8212012021343BA6B92F820206B
:1050FC001343BB64BB6BDB7B1B021AB2BB6B9B7B8E
:10510C001BB213431BB2FB85FB8D002B01D10D236E
:10511C007EE1FA8DFB6C1A44BB6B03F580530833AC
:10512C001988BB6B03F580530A331B885B099BB250
:10513C00B1FBF3F39BB21344BB62BA6CBB6A9A42E9
:10514C0001D20D2364E1BA6CBB6AD21ABB6B03F5B6
:10515C00805302331B78B2FBF3F37B627B6A002B28
:10516C0001D10D2354E1012387F857307B6A40F6B7
:10517C00F572934202D9022387F857307B6A4FF6B7
:10518C00F572934202D9032387F857307B6A9A1C35
:10519C00BB6B03F5805314331A60BB6B03F5805360
:1051AC001C333A6D1A60FA8D3B6D1A44BB6B03F5D8
:1051BC0081531A603A6DBB6A1A44BB6B03F5815379
:1051CC0008331A6097F85730032B27D1BB6B03F5C4
:1051DC00805308331B88002B01D00D2318E1BB6BC7
:1051EC0093F82F301A06BB6B93F82E301B04134325
:1051FC00BA6B92F82D2012021343BA6B92F82C2042
:10520C001A43BB6B03F5815304331A60BB6B03F574
:10521C00805314331B689B007B6430E0BB6B03F53D
:10522C00805308331B88002B01D10D23F0E0BB6B9E
:10523C0003F581531A68FB6C1A44BB6B03F581535D
:10524C0004331A6097F85730022B06D1BB6B03F569
:10525C00805314331B685B0010E0BB6B03F5805369
:10526C0014331A6813465B0013445A08BB6B03F5DE
:10527C00805314331B6803F0010313447B64BB6B32
:10528C0003F5805318331A68BB6B03F580530A334C
:10529C001B8819467B6C0B44591EBB6B03F5805362
:1052AC000A331B88B1FBF3F39A4201D20D23AFE012
:1052BC00BB6B03F5805310334FF0FF321A60BB6B9E
:1052CC0003F5805310331A68BB6B03F580530C3312
:1052DC001A60BB6B03F58053053380221A7097F864
:1052EC005730032B7DD1BB6B93F831301B021AB2B4
:1052FC00BB6B93F830301BB213431BB2012B70D134
:10530C003B6D01331946B86BFDF7E8FE0346002BE5
:10531C0067D1BB6B03F58053053300221A70BB6B4E
:10532C0093F8FF311B021AB2BB6B93F8FE311BB220
:10533C0013431BB2384A934253D1BB6BDB781A062A
:10534C00BB6B9B781B041343BA6B5278120213434A
:10535C00BA6B12781343314A934242D1BB6B93F828
:10536C00E7311A06BB6B93F8E6311B041343BA6B97
:10537C0092F8E52112021343BA6B92F8E42113431D
:10538C00274A93422DD1BB6B93F8EB311A06BB6BBA
:10539C0093F8EA311B041343BA6B92F8E921120219
:1053AC001343BA6B92F8E8211A43BB6B03F5805395
:1053BC0010331A60BB6B93F8EF311A06BB6B93F882
:1053CC00EE311B041343BA6B92F8ED211202134316
:1053DC00BA6B92F8EC211A43BB6B03F580530C3378
:1053EC001A60BB6B03F5805397F857201A700D4B5E
:1053FC001B8801339AB20B4B1A800A4B1A88BB6B71
:10540C0003F5805306331A80B86BFDF7E5FD0023D6
:10541C0018465837BD4680BD55AAFFFF5252614110
:10542C00727241617000002080B584B000AF78606A
:10543C007B68FB60FB68002B2DD0FB6803F5805369
:10544C001B68002B27D0FB6803F580531B6803F502
:10545C0080531B78002B1ED0FB6803F580531B6810
:10546C0003F5805306331A88FB6803F58053043325
:10547C001B889A420FD1FB6803F580531B6803F518
:10548C00805301331B781846FDF7F8FA034603F0F6
:10549C000103002B01D0092300E00023184610372C
:1054AC00BD4680BD80B588B000AFF860B9601346CA
:1054BC00FB71BB683B6107F110031846FFF7A7FBB4
:1054CC00F861FB69002B01DA0B232FE0194AFB6909
:1054DC0052F82330BB61BB69002B07D0B869FDF7CC
:1054EC007BFDBB6903F5805300221A70FB68002B0F
:1054FC0004D0FB6803F5805300221A70FA680D493A
:10550C00FB6941F82320FB68002B02D0FB79012BAF
:10551C0001D000230AE007F1080107F10C03002277
:10552C001846FFF725FC0346FB75FB7D1846203714
:10553C00BD4680BD6C00002080B5ADF5825D86B0A7
:10554C0000AF07F118030C3B186007F11803103B70
:10555C00196007F11803113B1A7007F118030C3B83
:10556C001B68002B01D1092319E307F118030C3B2D
:10557C001B6803F5805300221A6007F11803113BD6
:10558C0007F11802113A127802F01F021A7007F193
:10559C001803113B1B7823F00103DAB207F1180151
:1055AC00103907F13803183B03F580531846FFF701
:1055BC00DFFB034607F5825202F11702137007F561
:1055CC00825303F117031B78002B40F0E38207F1A1
:1055DC003803183B03F58053183307F11802043ACB
:1055EC001A6007F13803183B03F58153D14A1A604E
:1055FC0007F11803103B1A6807F13803183B1146E2
:10560C001846FFF78BFA034607F5825202F1170290
:10561C00137007F13803183B03F5805314331B68E0
:10562C0007F5825202F11002136007F5825303F161
:10563C0017031B78002B26D107F5825303F11003B7
:10564C001B68002B06D1062307F5825202F11702C4
:10565C00137018E007F11803113B1B7823F00103BA
:10566C00002B14BF01230023DBB21A4607F13803C9
:10567C00183B11461846FDF715FB034607F58252F9
:10568C0002F11702137007F11803113B1B7803F09A
:10569C001C03002B00F0508107F5825303F1170314
:1056AC001B78002B30D007F5825303F117031B78BE
:1056BC00042B12D1FDF768FB0346002B07D007F132
:1056CC003803183B1846FEF737FF034600E0122359
:1056DC0007F5825202F11702137007F11803113B00
:1056EC0007F11802113A127842F008021A7007F109
:1056FC003803183B03F5805314331B6807F58252AB
:10570C0002F1100213601FE007F5825303F110033E
:10571C001B680B331B7803F01103002B06D00723F7
:10572C0007F5825202F1170213700DE007F118030E
:10573C00113B1B7803F00403002B05D0082307F55D
:10574C00825202F11702137007F5825303F117030B
:10575C001B78002B40F0228107F11803113B1B78BA
:10576C0003F00803002B00F0198100F073FE07F51D
:10577C00825303F10C03186007F5825303F11003F5
:10578C001B680E3307F5825202F10C021268D2B27A
:10579C001A7007F5825303F110031B680F3307F5DA
:1057AC00825202F10C02126892B2120A92B2D2B276
:1057BC001A7007F5825303F110031B68103307F5B9
:1057CC00825202F10C021268120CD2B21A7007F556
:1057DC00825303F110031B68113307F5825202F157
:1057EC000C021268120ED2B21A7007F5825303F132
:1057FC0010031B680B3300221A7007F5825303F158
:10580C0010031B681C3300221A7007F5825303F136
:10581C0010031B681D3300221A7007F5825303F125
:10582C0010031B681E3300221A7007F5825303F114
:10583C0010031B681F3300221A7007F13803183B42
:10584C0003F580531B6807F5825202F110021168B0
:10585C001846FEF7B6FB07F5825303F108031860F0
:10586C00002107F5825303F110031868FEF7D7FBEC
:10587C0007F13803183B03F580531B6803F580537D
:10588C00043301221A7007F5825303F108031B68D5
:10589C00002B00F0838007F13803183B03F580538D
:1058AC001B6803F581530C331B6807F5825202F118
:1058BC000C02136007F13803183B03F580531B6887
:1058CC0007F5825202F1080211681846FDF78FFFA6
:1058DC00034607F5825202F11702137007F5825343
:1058EC0003F117031B78002B58D107F13803183B31
:1058FC0003F580531B6807F5825202F10802126807
:10590C00013A03F580530C331A6007F13803183B46
:10591C0003F580531B6807F5825202F10C021168E3
:10592C001846FDF7DBFB034607F5825202F117021E
:10593C00137033E08C00002007F5825303F117033A
:10594C001B78002B2AD107F5825303F110031B6837
:10595C000B331B7803F01003002B06D0042307F540
:10596C00825202F11702137018E007F11803113B71
:10597C001B7803F00203002B10D007F5825303F1C0
:10598C0010031B680B331B7803F00103002B05D0AD
:10599C00072307F5825202F11702137007F58253A1
:1059AC0003F117031B78002B5BD107F11803113B94
:1059BC001B7803F00803002B09D007F11803113BE7
:1059CC0007F11802113A127842F020021A7007F10E
:1059DC003803183B03F580531B6803F581530C33D4
:1059EC001A6807F118030C3B1B6803F580531C3332
:1059FC001A6007F118030C3B1B6803F5815307F57C
:105A0C00825202F1100212681A6007F11803113B5E
:105A1C001B7823F00103002B14BF01230023DBB2FE
:105A2C001A4607F13803183B11461846FDF7D0F912
:105A3C00024607F118030C3B1B6803F5815308332E
:105A4C001A6007F118030C3B1B6803F581530833EC
:105A5C001B68002B05D1022307F5825202F11702B5
:105A6C00137007F5825303F117031B78002B40F0DA
:105A7C00918007F118030C3B1B6803F58053063328
:105A8C0007F11802113A12781A7007F118030C3B3F
:105A9C001B6803F58053073300221A7007F1380393
:105AAC00183B03F580531B6807F5825202F1100274
:105ABC0011681846FEF785FA024607F118030C3BED
:105ACC001B6803F5805310331A6007F5825303F1FA
